{
  "_format": "hh-sol-artifact-1",
  "contractName": "Tracking",
  "sourceName": "contracts/Tracking.sol",
  "abi": [
    {
      "inputs": [],
      "stateMutability": "nonpayable",
      "type": "constructor"
    },
    {
      "anonymous": false,
      "inputs": [
        {
          "indexed": true,
          "internalType": "address",
          "name": "sender",
          "type": "address"
        },
        {
          "indexed": true,
          "internalType": "address",
          "name": "receiver",
          "type": "address"
        },
        {
          "indexed": false,
          "internalType": "uint256",
          "name": "id",
          "type": "uint256"
        },
        {
          "indexed": false,
          "internalType": "string",
          "name": "prodName",
          "type": "string"
        },
        {
          "indexed": false,
          "internalType": "uint256",
          "name": "price",
          "type": "uint256"
        }
      ],
      "name": "ShipmentCreated",
      "type": "event"
    },
    {
      "anonymous": false,
      "inputs": [
        {
          "indexed": true,
          "internalType": "address",
          "name": "sender",
          "type": "address"
        },
        {
          "indexed": true,
          "internalType": "address",
          "name": "receiver",
          "type": "address"
        }
      ],
      "name": "ShipmentDelivered",
      "type": "event"
    },
    {
      "anonymous": false,
      "inputs": [
        {
          "indexed": true,
          "internalType": "address",
          "name": "sender",
          "type": "address"
        },
        {
          "indexed": true,
          "internalType": "address",
          "name": "receiver",
          "type": "address"
        }
      ],
      "name": "ShipmentIntransit",
      "type": "event"
    },
    {
      "anonymous": false,
      "inputs": [
        {
          "indexed": true,
          "internalType": "address",
          "name": "sender",
          "type": "address"
        },
        {
          "indexed": true,
          "internalType": "address",
          "name": "receiver",
          "type": "address"
        },
        {
          "indexed": false,
          "internalType": "uint256",
          "name": "price",
          "type": "uint256"
        }
      ],
      "name": "ShipmentPaid",
      "type": "event"
    },
    {
      "inputs": [
        {
          "internalType": "address",
          "name": "_sender",
          "type": "address"
        },
        {
          "internalType": "address",
          "name": "_receiver",
          "type": "address"
        },
        {
          "internalType": "uint256",
          "name": "_index",
          "type": "uint256"
        }
      ],
      "name": "completeShipment",
      "outputs": [],
      "stateMutability": "nonpayable",
      "type": "function"
    },
    {
      "inputs": [
        {
          "internalType": "address",
          "name": "_receiver",
          "type": "address"
        },
        {
          "internalType": "string",
          "name": "_destination",
          "type": "string"
        },
        {
          "internalType": "uint256",
          "name": "_id",
          "type": "uint256"
        },
        {
          "internalType": "string",
          "name": "_prodName",
          "type": "string"
        },
        {
          "internalType": "uint256",
          "name": "_price",
          "type": "uint256"
        },
        {
          "internalType": "string",
          "name": "_reqTemp",
          "type": "string"
        },
        {
          "internalType": "string",
          "name": "_quantity",
          "type": "string"
        }
      ],
      "name": "createShipment",
      "outputs": [],
      "stateMutability": "payable",
      "type": "function"
    },
    {
      "inputs": [],
      "name": "getAllTransactions",
      "outputs": [
        {
          "components": [
            {
              "internalType": "address",
              "name": "sender",
              "type": "address"
            },
            {
              "internalType": "address",
              "name": "receiver",
              "type": "address"
            },
            {
              "internalType": "string",
              "name": "destination",
              "type": "string"
            },
            {
              "internalType": "uint256",
              "name": "id",
              "type": "uint256"
            },
            {
              "internalType": "string",
              "name": "prodName",
              "type": "string"
            },
            {
              "internalType": "uint256",
              "name": "price",
              "type": "uint256"
            },
            {
              "internalType": "string",
              "name": "reqTemp",
              "type": "string"
            },
            {
              "internalType": "string",
              "name": "quantity",
              "type": "string"
            },
            {
              "internalType": "enum Tracking.ShipmentStatus",
              "name": "status",
              "type": "uint8"
            },
            {
              "internalType": "bool",
              "name": "isPaid",
              "type": "bool"
            }
          ],
          "internalType": "struct Tracking.TyepShipment[]",
          "name": "",
          "type": "tuple[]"
        }
      ],
      "stateMutability": "view",
      "type": "function"
    },
    {
      "inputs": [
        {
          "internalType": "address",
          "name": "_sender",
          "type": "address"
        },
        {
          "internalType": "uint256",
          "name": "_index",
          "type": "uint256"
        }
      ],
      "name": "getShipment",
      "outputs": [
        {
          "internalType": "address",
          "name": "",
          "type": "address"
        },
        {
          "internalType": "address",
          "name": "",
          "type": "address"
        },
        {
          "internalType": "string",
          "name": "",
          "type": "string"
        },
        {
          "internalType": "uint256",
          "name": "",
          "type": "uint256"
        },
        {
          "internalType": "string",
          "name": "",
          "type": "string"
        },
        {
          "internalType": "uint256",
          "name": "",
          "type": "uint256"
        },
        {
          "internalType": "string",
          "name": "",
          "type": "string"
        },
        {
          "internalType": "string",
          "name": "",
          "type": "string"
        },
        {
          "internalType": "enum Tracking.ShipmentStatus",
          "name": "",
          "type": "uint8"
        },
        {
          "internalType": "bool",
          "name": "",
          "type": "bool"
        }
      ],
      "stateMutability": "view",
      "type": "function"
    },
    {
      "inputs": [
        {
          "internalType": "address",
          "name": "_sender",
          "type": "address"
        }
      ],
      "name": "getShipmentsCount",
      "outputs": [
        {
          "internalType": "uint256",
          "name": "",
          "type": "uint256"
        }
      ],
      "stateMutability": "view",
      "type": "function"
    },
    {
      "inputs": [],
      "name": "shipmentCount",
      "outputs": [
        {
          "internalType": "uint256",
          "name": "",
          "type": "uint256"
        }
      ],
      "stateMutability": "view",
      "type": "function"
    },
    {
      "inputs": [
        {
          "internalType": "address",
          "name": "",
          "type": "address"
        },
        {
          "internalType": "uint256",
          "name": "",
          "type": "uint256"
        }
      ],
      "name": "shipments",
      "outputs": [
        {
          "internalType": "address",
          "name": "sender",
          "type": "address"
        },
        {
          "internalType": "address",
          "name": "receiver",
          "type": "address"
        },
        {
          "internalType": "string",
          "name": "destination",
          "type": "string"
        },
        {
          "internalType": "uint256",
          "name": "id",
          "type": "uint256"
        },
        {
          "internalType": "string",
          "name": "prodName",
          "type": "string"
        },
        {
          "internalType": "uint256",
          "name": "price",
          "type": "uint256"
        },
        {
          "internalType": "string",
          "name": "reqTemp",
          "type": "string"
        },
        {
          "internalType": "string",
          "name": "quantity",
          "type": "string"
        },
        {
          "internalType": "enum Tracking.ShipmentStatus",
          "name": "status",
          "type": "uint8"
        },
        {
          "internalType": "bool",
          "name": "isPaid",
          "type": "bool"
        }
      ],
      "stateMutability": "view",
      "type": "function"
    },
    {
      "inputs": [
        {
          "internalType": "address",
          "name": "_sender",
          "type": "address"
        },
        {
          "internalType": "address",
          "name": "_receiver",
          "type": "address"
        },
        {
          "internalType": "uint256",
          "name": "_index",
          "type": "uint256"
        }
      ],
      "name": "startShipment",
      "outputs": [],
      "stateMutability": "nonpayable",
      "type": "function"
    }
  ],
  "bytecode": "0x608060405234801561001057600080fd5b5060006001819055506126a1806100286000396000f3fe60806040526004361061007b5760003560e01c80637ff5265d1161004e5780637ff5265d146101575780638365da5414610180578063aace20b7146101c6578063cf8e0b34146101f15761007b565b8063179a878c1461008057806327506f53146100a957806341fdc195146100d45780635667e02f14610111575b600080fd5b34801561008c57600080fd5b506100a760048036038101906100a291906118f4565b61020d565b005b3480156100b557600080fd5b506100be6105c0565b6040516100cb9190611c38565b60405180910390f35b3480156100e057600080fd5b506100fb60048036038101906100f69190611c5a565b61097e565b6040516101089190611c96565b60405180910390f35b34801561011d57600080fd5b5061013860048036038101906101339190611cb1565b6109c9565b60405161014e9a99989796959493929190611d68565b60405180910390f35b34801561016357600080fd5b5061017e600480360381019061017991906118f4565b610cb4565b005b34801561018c57600080fd5b506101a760048036038101906101a29190611cb1565b610f01565b6040516101bd9a99989796959493929190611d68565b60405180910390f35b3480156101d257600080fd5b506101db611336565b6040516101e89190611c96565b60405180910390f35b61020b60048036038101906102069190611f55565b61133c565b005b60008060008573ffffffffffffffffffffffffffffffffffffffff1673ffffffffffffffffffffffffffffffffffffffff168152602001908152602001600020828154811061025f5761025e612067565b5b9060005260206000209060090201905060006002838154811061028557610284612067565b5b906000526020600020906009020190508373ffffffffffffffffffffffffffffffffffffffff168260010160009054906101000a900473ffffffffffffffffffffffffffffffffffffffff1673ffffffffffffffffffffffffffffffffffffffff1614610327576040517f08c379a000000000000000000000000000000000000000000000000000000000815260040161031e906120e2565b60405180910390fd5b6001600281111561033b5761033a611a21565b5b8260080160009054906101000a900460ff16600281111561035f5761035e611a21565b5b1461039f576040517f08c379a00000000000000000000000000000000000000000000000000000000081526004016103969061214e565b60405180910390fd5b8160080160019054906101000a900460ff16156103f1576040517f08c379a00000000000000000000000000000000000000000000000000000000081526004016103e8906121ba565b60405180910390fd5b60028260080160006101000a81548160ff0219169083600281111561041957610418611a21565b5b021790555060028160080160006101000a81548160ff0219169083600281111561044657610445611a21565b5b02179055506000826005015490508260000160009054906101000a900473ffffffffffffffffffffffffffffffffffffffff1673ffffffffffffffffffffffffffffffffffffffff166108fc829081150290604051600060405180830381858888f193505050501580156104be573d6000803e3d6000fd5b5060018360080160016101000a81548160ff02191690831515021790555060018260080160016101000a81548160ff0219169083151502179055508473ffffffffffffffffffffffffffffffffffffffff168673ffffffffffffffffffffffffffffffffffffffff167f1cce15e1d0871a5922772c04a312086d7ef07fcb28d9946c5db86fdb4d25e0cb60405160405180910390a38473ffffffffffffffffffffffffffffffffffffffff168673ffffffffffffffffffffffffffffffffffffffff167f2b6f2473aebafaf8d0889669490135928ec4454d2e29a103fd39693bbca6aef1836040516105b09190611c96565b60405180910390a3505050505050565b60606002805480602002602001604051908101604052809291908181526020016000905b828210156109755783829060005260206000209060090201604051806101400160405290816000820160009054906101000a900473ffffffffffffffffffffffffffffffffffffffff1673ffffffffffffffffffffffffffffffffffffffff1673ffffffffffffffffffffffffffffffffffffffff1681526020016001820160009054906101000a900473ffffffffffffffffffffffffffffffffffffffff1673ffffffffffffffffffffffffffffffffffffffff1673ffffffffffffffffffffffffffffffffffffffff1681526020016002820180546106c490612209565b80601f01602080910402602001604051908101604052809291908181526020018280546106f090612209565b801561073d5780601f106107125761010080835404028352916020019161073d565b820191906000526020600020905b81548152906001019060200180831161072057829003601f168201915b505050505081526020016003820154815260200160048201805461076090612209565b80601f016020809104026020016040519081016040528092919081815260200182805461078c90612209565b80156107d95780601f106107ae576101008083540402835291602001916107d9565b820191906000526020600020905b8154815290600101906020018083116107bc57829003601f168201915b50505050508152602001600582015481526020016006820180546107fc90612209565b80601f016020809104026020016040519081016040528092919081815260200182805461082890612209565b80156108755780601f1061084a57610100808354040283529160200191610875565b820191906000526020600020905b81548152906001019060200180831161085857829003601f168201915b5050505050815260200160078201805461088e90612209565b80601f01602080910402602001604051908101604052809291908181526020018280546108ba90612209565b80156109075780601f106108dc57610100808354040283529160200191610907565b820191906000526020600020905b8154815290600101906020018083116108ea57829003601f168201915b505050505081526020016008820160009054906101000a900460ff16600281111561093557610934611a21565b5b600281111561094757610946611a21565b5b81526020016008820160019054906101000a900460ff161515151581525050815260200190600101906105e4565b50505050905090565b60008060008373ffffffffffffffffffffffffffffffffffffffff1673ffffffffffffffffffffffffffffffffffffffff168152602001908152602001600020805490509050919050565b600060205281600052604060002081815481106109e557600080fd5b9060005260206000209060090201600091509150508060000160009054906101000a900473ffffffffffffffffffffffffffffffffffffffff16908060010160009054906101000a900473ffffffffffffffffffffffffffffffffffffffff1690806002018054610a5590612209565b80601f0160208091040260200160405190810160405280929190818152602001828054610a8190612209565b8015610ace5780601f10610aa357610100808354040283529160200191610ace565b820191906000526020600020905b815481529060010190602001808311610ab157829003601f168201915b505050505090806003015490806004018054610ae990612209565b80601f0160208091040260200160405190810160405280929190818152602001828054610b1590612209565b8015610b625780601f10610b3757610100808354040283529160200191610b62565b820191906000526020600020905b815481529060010190602001808311610b4557829003601f168201915b505050505090806005015490806006018054610b7d90612209565b80601f0160208091040260200160405190810160405280929190818152602001828054610ba990612209565b8015610bf65780601f10610bcb57610100808354040283529160200191610bf6565b820191906000526020600020905b815481529060010190602001808311610bd957829003601f168201915b505050505090806007018054610c0b90612209565b80601f0160208091040260200160405190810160405280929190818152602001828054610c3790612209565b8015610c845780601f10610c5957610100808354040283529160200191610c84565b820191906000526020600020905b815481529060010190602001808311610c6757829003601f168201915b5050505050908060080160009054906101000a900460ff16908060080160019054906101000a900460ff1690508a565b60008060008573ffffffffffffffffffffffffffffffffffffffff1673ffffffffffffffffffffffffffffffffffffffff1681526020019081526020016000208281548110610d0657610d05612067565b5b90600052602060002090600902019050600060028381548110610d2c57610d2b612067565b5b906000526020600020906009020190508373ffffffffffffffffffffffffffffffffffffffff168260010160009054906101000a900473ffffffffffffffffffffffffffffffffffffffff1673ffffffffffffffffffffffffffffffffffffffff1614610dce576040517f08c379a0000000000000000000000000000000000000000000000000000000008152600401610dc5906120e2565b60405180910390fd5b60006002811115610de257610de1611a21565b5b8260080160009054906101000a900460ff166002811115610e0657610e05611a21565b5b14610e46576040517f08c379a0000000000000000000000000000000000000000000000000000000008152600401610e3d90612286565b60405180910390fd5b60018260080160006101000a81548160ff02191690836002811115610e6e57610e6d611a21565b5b021790555060018160080160006101000a81548160ff02191690836002811115610e9b57610e9a611a21565b5b02179055508373ffffffffffffffffffffffffffffffffffffffff168573ffffffffffffffffffffffffffffffffffffffff167f429e5905878ca727dd02e99cff7c7249af9300ef160373972eca07650e12cea960405160405180910390a35050505050565b600080606060006060600060608060008060008060008e73ffffffffffffffffffffffffffffffffffffffff1673ffffffffffffffffffffffffffffffffffffffff1681526020019081526020016000208c81548110610f6457610f63612067565b5b9060005260206000209060090201604051806101400160405290816000820160009054906101000a900473ffffffffffffffffffffffffffffffffffffffff1673ffffffffffffffffffffffffffffffffffffffff1673ffffffffffffffffffffffffffffffffffffffff1681526020016001820160009054906101000a900473ffffffffffffffffffffffffffffffffffffffff1673ffffffffffffffffffffffffffffffffffffffff1673ffffffffffffffffffffffffffffffffffffffff16815260200160028201805461103a90612209565b80601f016020809104026020016040519081016040528092919081815260200182805461106690612209565b80156110b35780601f10611088576101008083540402835291602001916110b3565b820191906000526020600020905b81548152906001019060200180831161109657829003601f168201915b50505050508152602001600382015481526020016004820180546110d690612209565b80601f016020809104026020016040519081016040528092919081815260200182805461110290612209565b801561114f5780601f106111245761010080835404028352916020019161114f565b820191906000526020600020905b81548152906001019060200180831161113257829003601f168201915b505050505081526020016005820154815260200160068201805461117290612209565b80601f016020809104026020016040519081016040528092919081815260200182805461119e90612209565b80156111eb5780601f106111c0576101008083540402835291602001916111eb565b820191906000526020600020905b8154815290600101906020018083116111ce57829003601f168201915b5050505050815260200160078201805461120490612209565b80601f016020809104026020016040519081016040528092919081815260200182805461123090612209565b801561127d5780601f106112525761010080835404028352916020019161127d565b820191906000526020600020905b81548152906001019060200180831161126057829003601f168201915b505050505081526020016008820160009054906101000a900460ff1660028111156112ab576112aa611a21565b5b60028111156112bd576112bc611a21565b5b81526020016008820160019054906101000a900460ff1615151515815250509050806000015181602001518260400151836060015184608001518560a001518660c001518760e001518861010001518961012001519a509a509a509a509a509a509a509a509a509a50509295989b9194979a5092959850565b60015481565b82341461137e576040517f08c379a000000000000000000000000000000000000000000000000000000000815260040161137590612318565b60405180910390fd5b60006040518061014001604052803373ffffffffffffffffffffffffffffffffffffffff1681526020018973ffffffffffffffffffffffffffffffffffffffff168152602001888152602001878152602001868152602001858152602001848152602001838152602001600060028111156113fc576113fb611a21565b5b81526020016000151581525090506000803373ffffffffffffffffffffffffffffffffffffffff1673ffffffffffffffffffffffffffffffffffffffff16815260200190815260200160002081908060018154018082558091505060019003906000526020600020906009020160009091909190915060008201518160000160006101000a81548173ffffffffffffffffffffffffffffffffffffffff021916908373ffffffffffffffffffffffffffffffffffffffff16021790555060208201518160010160006101000a81548173ffffffffffffffffffffffffffffffffffffffff021916908373ffffffffffffffffffffffffffffffffffffffff160217905550604082015181600201908161151591906124e4565b5060608201518160030155608082015181600401908161153591906124e4565b5060a0820151816005015560c082015181600601908161155591906124e4565b5060e082015181600701908161156b91906124e4565b506101008201518160080160006101000a81548160ff0219169083600281111561159857611597611a21565b5b02179055506101208201518160080160016101000a81548160ff0219169083151502179055505050600160008154809291906115d3906125e5565b919050555060026040518061014001604052803373ffffffffffffffffffffffffffffffffffffffff1681526020018a73ffffffffffffffffffffffffffffffffffffffff1681526020018981526020018881526020018781526020018681526020018581526020018481526020016000600281111561165657611655611a21565b5b815260200160001515815250908060018154018082558091505060019003906000526020600020906009020160009091909190915060008201518160000160006101000a81548173ffffffffffffffffffffffffffffffffffffffff021916908373ffffffffffffffffffffffffffffffffffffffff16021790555060208201518160010160006101000a81548173ffffffffffffffffffffffffffffffffffffffff021916908373ffffffffffffffffffffffffffffffffffffffff160217905550604082015181600201908161172e91906124e4565b5060608201518160030155608082015181600401908161174e91906124e4565b5060a0820151816005015560c082015181600601908161176e91906124e4565b5060e082015181600701908161178491906124e4565b506101008201518160080160006101000a81548160ff021916908360028111156117b1576117b0611a21565b5b02179055506101208201518160080160016101000a81548160ff02191690831515021790555050508773ffffffffffffffffffffffffffffffffffffffff163373ffffffffffffffffffffffffffffffffffffffff167f05e8e06db71bf039e3b0404bdb17e146823ee43df8c80ee48e13ba91447c062488888860405161183a9392919061262d565b60405180910390a35050505050505050565b6000604051905090565b600080fd5b600080fd5b600073ffffffffffffffffffffffffffffffffffffffff82169050919050565b600061188b82611860565b9050919050565b61189b81611880565b81146118a657600080fd5b50565b6000813590506118b881611892565b92915050565b6000819050919050565b6118d1816118be565b81146118dc57600080fd5b50565b6000813590506118ee816118c8565b92915050565b60008060006060848603121561190d5761190c611856565b5b600061191b868287016118a9565b935050602061192c868287016118a9565b925050604061193d868287016118df565b9150509250925092565b600081519050919050565b600082825260208201905092915050565b6000819050602082019050919050565b61197c81611880565b82525050565b600081519050919050565b600082825260208201905092915050565b60005b838110156119bc5780820151818401526020810190506119a1565b60008484015250505050565b6000601f19601f8301169050919050565b60006119e482611982565b6119ee818561198d565b93506119fe81856020860161199e565b611a07816119c8565b840191505092915050565b611a1b816118be565b82525050565b7f4e487b7100000000000000000000000000000000000000000000000000000000600052602160045260246000fd5b60038110611a6157611a60611a21565b5b50565b6000819050611a7282611a50565b919050565b6000611a8282611a64565b9050919050565b611a9281611a77565b82525050565b60008115159050919050565b611aad81611a98565b82525050565b600061014083016000830151611acc6000860182611973565b506020830151611adf6020860182611973565b5060408301518482036040860152611af782826119d9565b9150506060830151611b0c6060860182611a12565b5060808301518482036080860152611b2482826119d9565b91505060a0830151611b3960a0860182611a12565b5060c083015184820360c0860152611b5182826119d9565b91505060e083015184820360e0860152611b6b82826119d9565b915050610100830151611b82610100860182611a89565b50610120830151611b97610120860182611aa4565b508091505092915050565b6000611bae8383611ab3565b905092915050565b6000602082019050919050565b6000611bce82611947565b611bd88185611952565b935083602082028501611bea85611963565b8060005b85811015611c265784840389528151611c078582611ba2565b9450611c1283611bb6565b925060208a01995050600181019050611bee565b50829750879550505050505092915050565b60006020820190508181036000830152611c528184611bc3565b905092915050565b600060208284031215611c7057611c6f611856565b5b6000611c7e848285016118a9565b91505092915050565b611c90816118be565b82525050565b6000602082019050611cab6000830184611c87565b92915050565b60008060408385031215611cc857611cc7611856565b5b6000611cd6858286016118a9565b9250506020611ce7858286016118df565b9150509250929050565b611cfa81611880565b82525050565b600082825260208201905092915050565b6000611d1c82611982565b611d268185611d00565b9350611d3681856020860161199e565b611d3f816119c8565b840191505092915050565b611d5381611a77565b82525050565b611d6281611a98565b82525050565b600061014082019050611d7e600083018d611cf1565b611d8b602083018c611cf1565b8181036040830152611d9d818b611d11565b9050611dac606083018a611c87565b8181036080830152611dbe8189611d11565b9050611dcd60a0830188611c87565b81810360c0830152611ddf8187611d11565b905081810360e0830152611df38186611d11565b9050611e03610100830185611d4a565b611e11610120830184611d59565b9b9a5050505050505050505050565b600080fd5b600080fd5b7f4e487b7100000000000000000000000000000000000000000000000000000000600052604160045260246000fd5b611e62826119c8565b810181811067ffffffffffffffff82111715611e8157611e80611e2a565b5b80604052505050565b6000611e9461184c565b9050611ea08282611e59565b919050565b600067ffffffffffffffff821115611ec057611ebf611e2a565b5b611ec9826119c8565b9050602081019050919050565b82818337600083830152505050565b6000611ef8611ef384611ea5565b611e8a565b905082815260208101848484011115611f1457611f13611e25565b5b611f1f848285611ed6565b509392505050565b600082601f830112611f3c57611f3b611e20565b5b8135611f4c848260208601611ee5565b91505092915050565b600080600080600080600060e0888a031215611f7457611f73611856565b5b6000611f828a828b016118a9565b975050602088013567ffffffffffffffff811115611fa357611fa261185b565b5b611faf8a828b01611f27565b9650506040611fc08a828b016118df565b955050606088013567ffffffffffffffff811115611fe157611fe061185b565b5b611fed8a828b01611f27565b9450506080611ffe8a828b016118df565b93505060a088013567ffffffffffffffff81111561201f5761201e61185b565b5b61202b8a828b01611f27565b92505060c088013567ffffffffffffffff81111561204c5761204b61185b565b5b6120588a828b01611f27565b91505092959891949750929550565b7f4e487b7100000000000000000000000000000000000000000000000000000000600052603260045260246000fd5b7f496e76616c69642072656365697665722e000000000000000000000000000000600082015250565b60006120cc601183611d00565b91506120d782612096565b602082019050919050565b600060208201905081810360008301526120fb816120bf565b9050919050565b7f536869706d656e74206e6f7420696e207472616e7369742e0000000000000000600082015250565b6000612138601883611d00565b915061214382612102565b602082019050919050565b600060208201905081810360008301526121678161212b565b9050919050565b7f536869706d656e7420616c726561647920706169642e00000000000000000000600082015250565b60006121a4601683611d00565b91506121af8261216e565b602082019050919050565b600060208201905081810360008301526121d381612197565b9050919050565b7f4e487b7100000000000000000000000000000000000000000000000000000000600052602260045260246000fd5b6000600282049050600182168061222157607f821691505b602082108103612234576122336121da565b5b50919050565b7f536869706d656e7420616c726561647920696e207472616e7369742e00000000600082015250565b6000612270601c83611d00565b915061227b8261223a565b602082019050919050565b6000602082019050818103600083015261229f81612263565b9050919050565b7f5061796d656e7420616d6f756e74206d757374206d617463682074686520707260008201527f6963650000000000000000000000000000000000000000000000000000000000602082015250565b6000612302602383611d00565b915061230d826122a6565b604082019050919050565b60006020820190508181036000830152612331816122f5565b9050919050565b60008190508160005260206000209050919050565b60006020601f8301049050919050565b600082821b905092915050565b60006008830261239a7fffffffffffffffffffffffffffffffffffffffffffffffffffffffffffffffff8261235d565b6123a4868361235d565b95508019841693508086168417925050509392505050565b6000819050919050565b60006123e16123dc6123d7846118be565b6123bc565b6118be565b9050919050565b6000819050919050565b6123fb836123c6565b61240f612407826123e8565b84845461236a565b825550505050565b600090565b612424612417565b61242f8184846123f2565b505050565b5b818110156124535761244860008261241c565b600181019050612435565b5050565b601f8211156124985761246981612338565b6124728461234d565b81016020851015612481578190505b61249561248d8561234d565b830182612434565b50505b505050565b600082821c905092915050565b60006124bb6000198460080261249d565b1980831691505092915050565b60006124d483836124aa565b9150826002028217905092915050565b6124ed82611982565b67ffffffffffffffff81111561250657612505611e2a565b5b6125108254612209565b61251b828285612457565b600060209050601f83116001811461254e576000841561253c578287015190505b61254685826124c8565b8655506125ae565b601f19841661255c86612338565b60005b828110156125845784890151825560018201915060208501945060208101905061255f565b868310156125a1578489015161259d601f8916826124aa565b8355505b6001600288020188555050505b505050505050565b7f4e487b7100000000000000000000000000000000000000000000000000000000600052601160045260246000fd5b60006125f0826118be565b91507fffffffffffffffffffffffffffffffffffffffffffffffffffffffffffffffff8203612622576126216125b6565b5b600182019050919050565b60006060820190506126426000830186611c87565b81810360208301526126548185611d11565b90506126636040830184611c87565b94935050505056fea26469706673582212205eebab322614b53fa46332d55e719963542c4892d96878cf93ae48c7cf8263c964736f6c63430008180033",
  "linkReferences": {},
  "deployedLinkReferences": {}
}